:100000005DEF0AF0C2EF0AF0046ED8CF05F0E0CF42
:1000100006F00001E9CF0CF0EACF07F0E1CF08F0DD
:10002000E2CF09F0D9CF0AF0DACF0BF0F3CF12F01C
:10003000F4CF13F0FACF14F0F5CF15F0F6CF16F099
:10004000F7CF17F000C00EF001C00FF002C010F0A3
:1000500003C011F0F2AA30EF00F0F2B47EEF00F02E
:100060009DA036EF00F09EB027EF04F0A0A23CEF79
:1000700000F0A1B2D3EF08F00EC000F00FC001F005
:1000800010C002F011C003F00CC0E9FF07C0EAFF86
:10009000078E08C0E1FF09C0E2FF0AC0D9FF0BC00C
:1000A000DAFF12C0F3FF13C0F4FF14C0FAFF15C04B
:1000B000F5FF16C0F6FF17C0F7FF045006C0E0FFBB
:1000C00005C0D8FF1000F76AD60FF66E000EF722B3
:1000D0000900F5501200280C0106F76AEA0FF66EC7
:1000E000000EF7220900F55012003134372A32355C
:1000F000383033363923414243440C00EC0ED76E7E
:10010000EE0ED66E92948974762D02D0010E645F45
:10011000F2943CEF00F09FB102D08C9801D08C8813
:1001200095989FB302D08C9C01D08C8C959C9FB5E8
:1001300002D08C9601D08C8695969FB702D08C9475
:1001400001D08C8495940000959A8C8A020E006EE2
:10015000002EFED700D00000959A8C9A1200959E32
:100160008C9E630E006E002EFED700D09C5303E0E1
:10017000959E8C8E02D0959E8C9E0000959A8C9AAE
:100180009D399E6F0F0E9E179EC09FF0C4DF9D513C
:100190000F0B9E6F9F6FBFDF12009951010A07E09E
:1001A000030A07E0010A08E0070A09E00BD09A6B8E
:1001B0000AD0400E9A6F07D0140E9A6F04D0540ED6
:1001C0009A6F01D09A6B010E985D9A279A51800917
:1001D0009B6F9C6B9D6FC3DF1200EA6A980EE96EFD
:1001E000EF500DE0060E016E006A002EFED7012EC4
:1001F000FBD77B0E006E002EFED7EF2EF3D712003A
:1002000097510C0A05E0060A0DE0020A12E016D02A
:100210009C6B010E9D6FA3DF010E1C6E020E986F8A
:10022000DCDF11D01C2A010E986F1CC099F0B5DFDD
:100230000AD09C6B100E9D6F92DF05D0010E9C6F53
:1002400097C09DF08CDF12000900F5520CE0F6CF4C
:100250008AF0F7CF8BF0F5CF97F0D2DF8AC0F6FFA8
:100260008BC0F7FFF1D712008F51010B010803E19A
:1002700095988C8802D095988C988F51020B020823
:1002800003E1959C8C8C02D0959C8C9C8F51040B27
:10029000040803E195968C8602D095968C968F5132
:1002A000080B080803E195948C8402D095948C94F3
:1002B000630E006E002EFED700D08E5303E0959E95
:1002C0008C8E02D0959E8C9E959A8C8A020E006E22
:1002D000002EFED700D00000959A8C9A12008C391F
:1002E0008D6F0F0E8D178BC08EF08DC08FF0BCDF21
:1002F0008C510F0B8D6F8BC08EF08F6FB5DF12009E
:10030000010E8B6F8AC08CF0EADF12008E0E006E39
:100310008BC001F08AC002F0036A015209E102C0F9
:1003200001F0026A080E005E015202E1006A08D084
:10033000D89001BE04D0023601360006F9D7019EDE
:1003400012009751D8B471D0006E9B51D8B46DD0C3
:10035000002604E3810E002668E204D07F0E005ED2
:1003600064E363E098C09FF09C519F1B988F9C8F23
:100370009A519E03F4CFA1F099519D03F4CF03F05D
:10038000F3CFA0F09E03F350A127F450A023000E5A
:1003900003229A519D03F350A127F450A023000E8D
:1003A000026A0322022298519E03F350A027F450C0
:1003B0000322000E022298519D03F3500326F450AD
:1003C0000222000E016A01229A519C03F350A027D9
:1003D000F4500322000E0222012299519C03F35093
:1003E0000326F4500222000E012298519C03F35080
:1003F0000226F4500122002A01BE05D0A0370336A0
:10040000023601360006000EA0AF0AD0032A0222EF
:100410000122015005E1025003E1035001E1002AED
:100420009FBF018E9FAF019E04D0006A016A026ADD
:10043000036A12008E51D8B4A5D09A6F9251D8B4E5
:10044000A1D09A5F05E37F0E9A27D8B09BD006D043
:10045000810E9A5FD8A096D0D8B494D09AC000F0FC
:10046000016A026A036A996B8FC098F0988F90C0F6
:1004700097F091C096F0190E9A6F9551965F0DE224
:10048000010E975F0AE2985F08E2995F06E2992BF6
:10049000982B972B9551962728D09451975F12E26D
:1004A000010E985F0FE2995F0DE2992B982B945102
:1004B00097279551962719E3972B17E1982B15E16C
:1004C000992B13D093518009985F0EE2010E995F2A
:1004D0000BE2992B93518009982794519727E9E3D0
:1004E000982BE7E1992BE5D703809A2F01D00BD009
:1004F000D8909637973798379937D8900336023681
:1005000001369B37BAD79BA106D0D8900132023270
:1005100003329B3302D0000635E09BBF1ED0D8903B
:1005200096379737983799379551965F07E2010EBE
:10053000975F04E2985F02E2995F1AE39451975F34
:1005400005E2010E985F02E2995F12E39351800980
:10055000985F03E2010E995F0BE3032A09E1022A87
:1005600007E1012A05E1002A0DE0013202320332DF
:100570008FC09AF093519A1B9AAF02D0018E06D089
:10058000019E04D0006A016A026A036ADBEF04F08C
:100590009751B608976F036A98C09BF0988FD890D0
:1005A000983399339A330332023201320032972F53
:1005B000F6D79BAF0BD0001E011E021E031E002AA1
:1005C000D8B4012AD8B4022AD8B4032A56EF03F0CB
:1005D000D8B203D0EA6A9F0EE96E006A016A026A25
:1005E000036A9F6BA06BA16BA26B9E519D119C1126
:1005F0009B112CE0200EA36FD8909737983799372E
:100600009A379F37A037A137A2379E51A25D08E1E4
:100610009D51A15D05E19C51A05D02E19B519F5D53
:100620000FE39B519F5F9C51D8A09C3DA05F9D51C3
:10063000D8A09D3DA15F9E51D8A09E3DA25FD880CD
:100640000036013602360336A32FD6D79FC0EFFF00
:10065000A0C0ECFFA1C0ECFFA2C0ECFF1200E9506B
:100660008F6F8E51916F19E08DC09AF08CC099F008
:100670008BC098F08AC097F09E6B9D6B200E9C6F8C
:10068000820E9B6F5EDE03C08DF002C08CF001C055
:100690008BF000C08AF0912FE7D78DC09AF08CC004
:1006A00099F08BC098F08AC097F072D703C08DF094
:1006B00002C08CF001C08BF000C08AF08DAF0DD06D
:1006C0008F078F8B8A1F8B1F8C1F8D1F8A2BD8B48F
:1006D0008B2BD8B48C2BD8B48D2B3B0E966F9A0EE7
:1006E000956FCA0E946F936B0A0E916F8E51D8B4AA
:1006F0008F2BD882EA6A8A0EE96E8DC09AF08CC080
:1007000099F08BC098F08AC097F096C09EF095C083
:100710009DF094C09CF093C09BF05ADF01500052B2
:100720000FE18E29915D0CE08F510CE00F0B915D74
:1007300001E037E28FBF35D08FBD04D0200E2DD021
:10074000200E8F178FAB0CD08F9B8E51D8A48F07A4
:1007500000508F6F2D0E976F53DD8F51006E8F6B92
:100760008E51915D0AE100508F6F2E0E976F48DD1C
:100770008F51006E200E8F17000E300E8FAB0DD0F4
:100780008F9B8E51D8A48F0700508F6F2D0E976FBF
:1007900037DD8F51006E8F6B300E002600C097F052
:1007A0002FDDD89296C09AF095C099F094C098F039
:1007B00093C097F09E6B9D6B9C6B0A0E9B6F08DF3E
:1007C00003C096F002C095F001C094F000C093F011
:1007D000912F8FD7F6EF04F08BC092F08F51921BC0
:1007E00092AF05D0D894D8908BBFD8802FD08BC033
:1007F00092F08EC093F08A51935F06E092AF26D0BC
:10080000D850010AD86E22D08FC093F08B51935FDD
:1008100006E092AF1BD0D850010AD86E17D090C016
:1008200093F08C51935F06E092AF10D0D850010A3C
:10083000D86E0CD091C093F08D51935F06E092AFCB
:1008400005D0D850010AD86E01D0D8901200F60E0B
:10085000CF6E180ECE6E928280A202D0899201D005
:1008600089829292110E986F030E996F96DC620E38
:10087000F66E0F0EF76EE8DC6D2D36D0060E986F13
:10088000010E996F8ADC640EF66E0F0EF76EDCDCDB
:10089000080E986F010E996F80DCEE0E976FB0DC3A
:1008A0000E0E986F010E996F78DC010E8A6F28DDAD
:1008B000030E986F020E996F70DC700EF66E0F0EBD
:1008C000F76EC2DC010E986F030E996F66DC820E24
:1008D000F66E0F0EF76EB8DC0E0E986F030E996F62
:1008E0005CDC010E8A6F0CDD6C2D14D0010E986F4C
:1008F000020E996F52DC960EF66E0F0EF76EA4DCA8
:10090000010E986F030E996F48DCA40EF66E0F0E61
:10091000F76E9ADC742DA6D0212AD8B4222A226A36
:10092000050E216E221062E0226A216A000E016E1D
:10093000C250C30B0110C26EC282C2B2FED7C4CF76
:1009400003F0C3CF8AF0C4CF8BF0E0DC03C026F005
:1009500002C025F001C024F000C023F0200E006E7C
:10096000002EFED700D0000026C09AF025C099F0D6
:1009700024C098F023C097F09E6B9D6B7A0E9C6FFD
:10098000870E9B6FDEDC03C08DF002C08CF001C0CF
:100990008BF000C08AF003C091F002C090F001C05B
:1009A0008FF000C08EF0956BC00E946F7F0E936F2A
:1009B000880E926F3FD503C02AF002C029F001C013
:1009C00028F000C027F00D0E986F010E996FCDEC46
:1009D00000F0C90EE96E2AC08DF029C08CF028C045
:1009E0008BF027C08AF0020E8E6F39D6010E986FF9
:1009F000996FCDEC00F0B40EF66E0F0EF76E24DC9E
:100A0000010E986F020E996FCDEC00F0C00EF66EDD
:100A10000F0EF76E19DC120E986F010E996FCDEC68
:100A200000F08A6B6DDC130E986F010E996FCDECA0
:100A300000F0D00EF66E0F0EF76E06DC130E986FF8
:100A4000020E996FCDEC00F08A6B5ADC140E986F91
:100A5000020E996FCDEC00F0D40EF66E0F0EF76E0D
:100A600024EC01F0752D30D08B6B79C08AF04EDC10
:100A70002AC08DF029C08CF028C08BF027C08AF0E6
:100A800003C091F002C090F001C08FF000C08EF062
:100A9000A3DE02E395908C808B6B79C08AF036DC04
:100AA00003C08DF002C08CF001C08BF000C08AF052
:100AB0002AC091F029C090F028C08FF027C08EF096
:100AC0008BDE02E395908C90010E71277151020824
:100AD00001E1716B010E725DFA0FD8B0E0D0060F24
:100AE0009EEF07F0120E986F020E996FCDEC00F09A
:100AF000D60EF66E0F0EF76E24EC01F071530CE17A
:100B0000110E986F020E996FCDEC00F0D80EF66EB4
:100B10000F0EF76E24EC01F0712D0CD0110E986FB2
:100B2000020E996FCDEC00F0DA0EF66E0F0EF76E36
:100B300024EC01F0B4D071530CE1120E986F020E48
:100B4000996FCDEC00F0DC0EF66E0F0EF76E24EC14
:100B500001F0712D0CD0120E986F020E996FCDEC32
:100B600000F0DE0EF66E0F0EF76E24EC01F097D05B
:100B70000A0E986F010E996FCDEC00F0E00EF66E44
:100B80000F0EF76E24EC01F071530CE1090E986F13
:100B9000010E996FCDEC00F0E20EF66E0F0EF76EBF
:100BA00024EC01F0712D0CD0090E986F010E996F95
:100BB000CDEC00F0E40EF66E0F0EF76E24EC01F0B3
:100BC0006ED00C0E986F010E996FCDEC00F0E60E12
:100BD000F66E0F0EF76E24EC01F071530CE10A0E65
:100BE000986F010E996FCDEC00F0E80EF66E0F0EC7
:100BF000F76E24EC01F0712D0CD00A0E986F010EE7
:100C0000996FCDEC00F0EA0EF66E0F0EF76E24EC45
:100C100001F045D00D0E986F010E996FCDEC00F0EC
:100C2000EC0EF66E0F0EF76E24EC01F071530CE132
:100C30000C0E986F010E996FCDEC00F0EE0EF66E73
:100C40000F0EF76E24EC01F0712D0CD00C0E986F86
:100C5000010E996FCDEC00F0F00EF66E0F0EF76EF0
:100C600024EC01F01CD071530CE10D0E986F010EB5
:100C7000996FCDEC00F0F20EF66E0F0EF76E24ECCD
:100C800001F0712D0CD00D0E986F010E996FCDEC07
:100C900000F0F40EF66E0F0EF76E24EC01F06E2DE0
:100CA0001CD071530CE1010E986F040E996FCDECBE
:100CB00000F0F60EF66E0F0EF76E24EC01F0712DBB
:100CC0000CD0010E986F040E996FCDEC00F00C0E55
:100CD000F66E100EF76E24EC01F06E530CE1010E6F
:100CE000986F040E996FCDEC00F0220EF66E100E88
:100CF000F76E24EC01F06E510208D8A41CD17A538F
:100D00000CE10B0E986F040E996FCDEC00F0380ECD
:100D1000F66E100EF76E24EC01F07A51050818E11A
:100D20000B0E986F040E996FCDEC00F0400EF66E2E
:100D3000100EF76E24EC01F00B0E986F040E996FF5
:100D4000CDEC00F0480EF66E100EF76E24EC01F0BC
:100D50007A510A0818E10B0E986F040E996FCDECCA
:100D600000F04E0EF66E100EF76E24EC01F00B0E36
:100D7000986F040E996FCDEC00F0560EF66E100EC3
:100D8000F76E24EC01F07A510F0818E10B0E986F02
:100D9000040E996FCDEC00F05C0EF66E100EF76E3F
:100DA00024EC01F00B0E986F040E996FCDEC00F05F
:100DB000640EF66E100EF76E24EC01F07A511408F2
:100DC00018E10B0E986F040E996FCDEC00F06A0ECF
:100DD000F66E100EF76E24EC01F00B0E986F040EF9
:100DE000996FCDEC00F0720EF66E100EF76E24ECDB
:100DF00001F07A51190818E10B0E986F040E996FE3
:100E0000CDEC00F0780EF66E100EF76E24EC01F0CB
:100E10000B0E986F040E996FCDEC00F0800EF66EFD
:100E2000100EF76E24EC01F07A511E0818E10B0E3B
:100E3000986F040E996FCDEC00F0860EF66E100ED2
:100E4000F76E24EC01F00B0E986F040E996FCDEC49
:100E500000F08E0EF66E100EF76E24EC01F07A5153
:100E6000230818E10B0E986F040E996FCDEC00F07B
:100E7000940EF66E100EF76E24EC01F00B0E986FC8
:100E8000040E996FCDEC00F09C0EF66E100EF76E0E
:100E900024EC01F07A51280818E10B0E986F040E2B
:100EA000996FCDEC00F0A20EF66E100EF76E24ECEA
:100EB00001F00B0E986F040E996FCDEC00F0AA0EA6
:100EC000F66E100EF76E24EC01F07A512D0818E141
:100ED0000B0E986F040E996FCDEC00F0B00EF66E0D
:100EE000100EF76E24EC01F00B0E986F040E996F44
:100EF000CDEC00F0B80EF66E100EF76E24EC01F09B
:100F00007A51320818E10B0E986F040E996FCDECF0
:100F100000F0BE0EF66E100EF76E24EC01F00B0E14
:100F2000986F040E996FCDEC00F0C60EF66E100EA1
:100F3000F76E24EC01F09E903CEF00F0E824F76A95
:100F4000F736570FF66E0F0EF7220A00F550FA6EBD
:100F50000800F550F96EE40A360B700BC20B140C46
:100F6000660C20004261206F204D617220610000FC
:100F700074656D706F72697A61646F2070617261FF
:100F800000007265616363696F6E6573207175201F
:100F90006D696361730020202020202020204848B4
:100FA0003A4D4D00202020202020202020202020ED
:100FB0002020200054656D702E207265616C3A000F
:100FC00054656D702E20646573656164613A00003C
:100FD0004320000043005F005F0020005F0020000E
:100FE0005F005F0020005F005F0020005F005F0087
:100FF00020005F00200050756C7365202320706115
:101000007261206176616E7A61720000202020207A
:1010100020202020202020202020202020202020D0
:101020000000202020202020202020202020202000
:1010300020202020202000004170616761646F0043
:1010400020202020202020003130202500002020DA
:1010500020202020200032302025000020202020C9
:1010600020202000333020250000202020202020B8
:1010700020003430202500002020202020202000C7
:101080003530202500002020202020202000363070
:10109000202500002020202020202000373020257F
:1010A00000002020202020202000383020250000B3
:1010B0002020202020202000393020250000202062
:1010C0002020202020003130302025009151016A5D
:1010D000905D03E290C000F00CD0006A080E926FA1
:1010E000903700369151005CD8B0006E0136922FD7
:1010F000F7D71200200E8BA9300E8C6F8AC000F03B
:101100008AAF08D0001E002A00C08AF02D0E8C6F16
:101110008B8F8B8101508AC090F0640E916FD6DF67
:1011200000C08AF0300E01248D6F8AC090F00A0E44
:10113000916FCCDF300E00248F6F300E01248E6F44
:101140008CC000F0300E8D5D04E08B838BBF8B85EF
:1011500012D08CC08DF0200E8C6F300E8E5D04E0AE
:101160008B818BBF8B8307D0D8A48B8104E18DC08A
:101170008EF0200E8D6F8BB505D08BB307D08BB161
:1011800009D00CD08CC097F000EC01F08DC097F026
:1011900000EC01F08EC097F000EC01F08FC097F0EA
:1011A00000EC01F01200F60EB36E180EB26E9296BD
:1011B00089766F2D4DD0100E986F030E996FCDEC80
:1011C00000F064C08AF0180E8B6F94DF0F0E986FDA
:1011D000030E996FCDEC00F065C08AF0180E8B6F8E
:1011E00089DF0D0E986F030E996FCDEC00F066C08D
:1011F0008AF0180E8B6F7EDF0C0E986F030E996FBE
:10120000CDEC00F067C08AF0180E8B6F73DF0A0E0A
:10121000986F030E996FCDEC00F068C08AF0180E3D
:101220008B6F68DF090E986F030E996FCDEC00F09D
:1012300069C08AF0180E8B6F5DDF110E986F020E79
:10124000996FCDEC00F079C08AF0110E8B6F52DFF0
:10125000A1923CEF00F00C005F005F000C005469AD
:10126000656D706F3A205F5F3A5F5F000C004C6104
:101270002074656D706572617475726100006465DB
:101280007365616461206465626520736572000046
:101290006D61796F722061206C61000074656D7002
:1012A00065726174757261207265616C00000C007A
:1012B0005F005F000C005469656D706F3A2020205C
:1012C0003A20203A202000004167697461646F72FF
:1012D0003A204170616761646F00200020002000A7
:1012E000010E1C6E959E8C9E959A8C9A196AF2BE80
:1012F000198EF29E230E986FEDEC00F019BEF28E5F
:101300007B6B7B51020816E3196AF2BE198EF29EBE
:10131000030E9F6F8BEC00F019BEF28E196AF2BEBD
:10132000198EF29E050E986FEDEC00F019BEF28E4C
:101330007B2BE7D7196AF2BE198EF29E020E9F6FC1
:101340008BEC00F019BEF28E7B6B7B5103081BE324
:10135000036A7B5163EC00F07C6F196AF2BE198E50
:10136000F29E9C6B9D6FAFEC00F019BEF28E196A75
:10137000F2BE198EF29E050E986FEDEC00F019BECC
:10138000F28E7B2BE2D7C0EF0AF07B51080DF350B1
:10139000400F7C6F196AF2BE198EF29E8B6B7CC077
:1013A0008CF06FEC01F019BEF28E12007D6B7D5156
:1013B000070816E37D517B25E96E000E7C21EA6E5D
:1013C000EFCF7EF0196AF2BE198EF29E010E8B6F7E
:1013D0007EC08CF06FEC01F019BEF28E7D2BE7D74A
:1013E00012007B6B1D2A1D50210851E22050FC0F7A
:1013F00012E2040F4CEF0AF0FE0E936E816E0BD0DA
:10140000FD0E936E816E07D0FB0E936E816E03D03E
:10141000F70E936E816E1EA009D08150F00BF0087C
:1014200004E11E901FC07BF01F6A30D08150F00B8A
:10143000F00827E08150100B02E17C6B11D0815045
:10144000200B03E1010E7C6F0BD08150400B03E1B8
:10145000020E7C6F05D08150800B02E1030E7C6F81
:101460007C51040DF3507E6B7D6F036A20507D2507
:10147000016E7E51032201506DEC00F01F6E1E8044
:1014800005D0202A2050040801E1206A1D6AFF0EC1
:10149000936E7BC001F01200E824F76AF736B30FB1
:1014A000F66E140EF7220A00F550FA6E0800F55099
:1014B000F96EF813001408141014F86AD09E078E01
:1014C000226A040E216E646B656B6A6B6B6B6C6BCE
:1014D000010E6D6F6E6F6F6B706B716F726B736BF4
:1014E000746B756B766B7A6BC150C00B0F09C16E54
:1014F000070EB46E1E9024D002001A000001001DD9
:101500000002001F000003002B07050705C00008AC
:10151000800204000404041E0008C00A2080181C75
:101520001E1F1F1E1C18030600040E1F1F0E000E98
:10153000131515110E00050A000E1F1F0E000000E6
:10154000000EF86E140EF76EF80EF66E0900F550E8
:10155000006E000A13E00900F550016EE8BE05D0E8
:101560000F0BEA6E0900F5CFE9FF01BC090001ACE1
:101570000900F5CFEEFF004EE9D7F9D7F86AB0D6EB
:1015800002EF00F0F19E95908C90C150C00B0E09B7
:10159000C16EC050C00B0709C06EC08EC2807B6B8D
:1015A000F4DE7C6B2B0E7B6F01DF010E7B6FEDDEBB
:1015B0007C6B330E7B6FFADE020E7B6FE6DE7C6B9C
:1015C0003B0E7B6FF3DE030E7B6FDFDE7C6B430E27
:1015D0007B6FECDE040E7B6FD8DE7C6B4B0E7B6F7B
:1015E000E5DE050E7B6FD1DE7C6B530E7B6FDEDE9E
:1015F000060E7B6FCADE7C6B5B0E7B6FD7DE000E48
:10160000936E8A6A870ED56EF28AC00EF212EC0EC5
:10161000D76EEE0ED66EB50ECD6E9D80C00EF21258
:10162000F60ECF6E180ECE6E000E0509CA6E310E84
:10163000CB6E94948B940C0EBD6EB76AB66ABE6A7C
:10164000B50EB16EA082C00EF212F60EB36E180E79
:10165000B26E726BC6DE01C063F063512308D8A47A
:1016600093EF15F06D6B6E6B560EF66E120EF76EF5
:10167000196AF2BE198EF29E24EC01F019BEF28EA8
:10168000196AF2BE198EF29E110E986F020E996FB2
:10169000CDEC00F019BEF28E580EF66E120EF76EFB
:1016A000196AF2BE198EF29E24EC01F019BEF28E78
:1016B000196AF2BE198EF29E120E986F020E996F81
:1016C000CDEC00F019BEF28E5A0EF66E120EF76EC9
:1016D000196AF2BE198EF29E24EC01F019BEF28E48
:1016E000010E726F6C6B746F706B7BDE01C063F008
:1016F0006353D8B491EF15F0635302E1000E01D0AB
:10170000010E7B6F63512A0802E1000E01D0010E29
:101710007B176351410802E1000E01D0010E7B17D7
:101720006351420802E1000E01D0010E7B176351A4
:10173000430802E1000E01D0010E7B1763514408FB
:1017400002E1000E01D0010E7B176351230802E174
:10175000000E01D0010E7B15D8B491EF15F0020EEA
:10176000726F702D02D091EF15F0635302E1000EFD
:1017700001D0010E7B6F6351410802E1000E01D0E0
:10178000010E7B176351420802E1000E01D0010EE9
:101790007B176351430802E1000E01D0010E7B1755
:1017A0006351440802E1000E01D0010E7B17635122
:1017B000230802E1000E01D0010E7B1763512A08B5
:1017C00002E1000E01D0010E7B1547E0196AF2BE5E
:1017D000198EF29E110E986F020E996FCDEC00F0EB
:1017E00019BEF28E196AF2BE198EF29E63C097F08E
:1017F00000EC01F019BEF28E6351310802E1010ED6
:10180000776F6351320802E1020E776F635133083C
:1018100002E1030E776F6351340802E1040E776F23
:101820006351350802E1050E776F6351360802E116
:10183000060E776F6351370802E1070E776F635129
:10184000380802E1080E776F6351390802E1090E8A
:10185000776F6351300801E1776BC3DD01C063F03E
:101860006353D8B48FEF15F063512A0802E191EF6A
:1018700015F0635302E1000E01D0010E7B6F63513E
:101880002A0802E1000E01D0010E7B1763514108C6
:1018900002E1000E01D0010E7B176351420802E104
:1018A000000E01D0010E7B176351430802E1000EC8
:1018B00001D0010E7B176351440802E1000E01D0F4
:1018C000010E7B176351230802E1000E01D0010EC7
:1018D0007B15D8B48FEF15F0196AF2BE198EF29EFF
:1018E000010E986F040E996FCDEC00F019BEF28EC8
:1018F000010E6E6F726B702D02D08FEF15F0635377
:1019000002E1000E01D0010E7B6F6351410802E13C
:10191000000E01D0010E7B176351420802E1000E58
:1019200001D0010E7B176351430802E1000E01D084
:10193000010E7B176351440802E1000E01D0010E35
:101940007B176351230802E1000E01D0010E7B17C3
:1019500063512A0802E1000E01D0010E7B154EE012
:10196000196AF2BE198EF29E120E986F020E996FCE
:10197000CDEC00F019BEF28E196AF2BE198EF29EFD
:1019800063C097F000EC01F019BEF28E635131088C
:1019900002E1010E786F6351320802E1020E786FA6
:1019A0006351330802E1030E786F6351340802E19A
:1019B000040E786F6351350802E1050E786F6351AC
:1019C000360802E1060E786F6351370802E1070E10
:1019D000786F6351380802E1080E786F6351390857
:1019E00002E1090E786F6351300801E1786B77519D
:1019F0000A0DF3507825796F79C06BF0F2DC01C0E5
:101A000063F063512A0805E1020E726F6E6B8FEF6F
:101A100015F063512308D8A48DEF15F0746B6E6B2D
:101A20005C0EF66E120EF76E196AF2BE198EF29EF9
:101A300024EC01F019BEF28E705319E1196AF2BE5E
:101A4000198EF29E010E986F996FCDEC00F019BEC1
:101A5000F28E5E0EF66E120EF76E196AF2BE198ED7
:101A6000F29E24EC01F019BEF28E030E726F702DFF
:101A700002D08DEF15F0196AF2BE198EF29E8B6BB3
:101A800079C08AF086EC01F019BEF28E196AF2BEB6
:101A9000198EF29E03C08DF002C08CF001C08BF055
:101AA00000C08AF02AC091F029C090F028C08FF0C1
:101AB00027C08EF0ECEC03F019BEF28ED8A0C3D094
:101AC0006C6B030E6E6F746B726B6C0EF66E120E97
:101AD000F76E196AF2BE198EF29E24EC01F019BE5F
:101AE000F28E196AF2BE198EF29E040E986F010EE4
:101AF000996FCDEC00F019BEF28E6E0EF66E120EDE
:101B0000F76E196AF2BE198EF29E24EC01F019BE2E
:101B1000F28E196AF2BE198EF29E030E986F020EB3
:101B2000996FCDEC00F019BEF28E7E0EF66E120E9D
:101B3000F76E196AF2BE198EF29E24EC01F019BEFE
:101B4000F28E196AF2BE198EF29E060E986F030E7F
:101B5000996FCDEC00F019BEF28E900EF66E120E5B
:101B6000F76E196AF2BE198EF29E24EC01F019BECE
:101B7000F28E196AF2BE198EF29E030E986F040E51
:101B8000996FCDEC00F019BEF28E9C0EF66E120E1F
:101B9000F76E196AF2BE198EF29E24EC01F019BE9E
:101BA000F28E020E7B6F196AF2BE198EF29EFA0E49
:101BB000986FEDEC00F019BEF28E7B2FF4D7AE0ECD
:101BC000F66E120EF76E196AF2BE198EF29E24ECB2
:101BD00001F019BEF28E196AF2BE198EF29E110E34
:101BE000986F020E996FCDEC00F019BEF28EB00E18
:101BF000F66E120EF76E196AF2BE198EF29E24EC82
:101C000001F019BEF28E196AF2BE198EF29E120E02
:101C1000986F020E996FCDEC00F019BEF28EB20EE5
:101C2000F66E120EF76E196AF2BE198EF29E24EC51
:101C300001F019BEF28E010E746F706F226A040EED
:101C4000216E01D03DD7030E726F010E6C6FF1EC67
:101C500009F001C063F0635302E1000E01D0010EF0
:101C60007B6F63512A0802E1000E01D0010E7B1741
:101C70006351410802E1000E01D0010E7B17635150
:101C8000420802E1000E01D0010E7B1763514308A8
:101C900002E1000E01D0010E7B176351440802E1FE
:101CA000000E01D0010E7B176351230802E1000EE4
:101CB00001D0010E7B15D8B48BEF15F0040E726FB6
:101CC000635302E1000E01D0010E7B6F63514108A6
:101CD00002E1000E01D0010E7B176351420802E1C0
:101CE000000E01D0010E7B176351430802E1000E84
:101CF00001D0010E7B176351440802E1000E01D0B0
:101D0000010E7B176351230802E1000E01D0010E82
:101D10007B1763512A0802E1000E01D0010E7B15EA
:101D200047E0196AF2BE198EF29E090E986F010EF5
:101D3000996FCDEC00F019BEF28E196AF2BE198EC1
:101D4000F29E63C097F000EC01F019BEF28E635171
:101D5000310802E1010E696F6351320802E1020E9F
:101D6000696F6951330802E1030E696F63513408EA
:101D700002E1040E696F6351350802E1050E696FD7
:101D80006351360802E1060E696F6351370802E1BC
:101D9000070E696F6351380802E1080E696F6351DD
:101DA000390802E1090E696F6351300801E1696B7E
:101DB000F1EC09F001C063F06353D8B489EF15F07A
:101DC00063512A0802E18BEF15F0635302E1000E24
:101DD00001D0010E7B6F63512A0802E1000E01D091
:101DE000010E7B176351410802E1000E01D0010E84
:101DF0007B176351420802E1000E01D0010E7B17F0
:101E00006351430802E1000E01D0010E7B176351BC
:101E1000440802E1000E01D0010E7B176351230834
:101E200002E1000E01D0010E7B15D8B489EF15F048
:101E3000050E726F635302E1000E01D0010E7B6F3D
:101E40006351410802E1000E01D0010E7B1763517E
:101E5000420802E1000E01D0010E7B1763514308D6
:101E600002E1000E01D0010E7B176351440802E12C
:101E7000000E01D0010E7B176351230802E1000E12
:101E800001D0010E7B1763512A0802E1000E01D038
:101E9000010E7B1547E0196AF2BE198EF29E0A0EFA
:101EA000986F010E996FCDEC00F019BEF28E196A91
:101EB000F2BE198EF29E63C097F000EC01F019BEDD
:101EC000F28E6351310802E1010E686F63513208EE
:101ED00002E1020E686F6351330802E1030E686F7E
:101EE0006351340802E1040E686F6351350802E162
:101EF000050E686F6351360802E1060E686F635184
:101F0000370802E1070E686F6351380802E1080ED6
:101F1000686F6351390802E1090E686F6351300838
:101F200001E1686BF1EC09F001C063F06353D8B4D0
:101F300087EF15F063512A0802E189EF15F063532A
:101F400002E1000E01D0010E7B6F63512A0802E10D
:101F5000000E01D0010E7B176351410802E1000E13
:101F600001D0010E7B176351420802E1000E01D03F
:101F7000010E7B176351430802E1000E01D0010EF0
:101F80007B176351440802E1000E01D0010E7B175C
:101F90006351230802E1000E01D0010E7B15D8B475
:101FA00087EF15F0060E726F635302E1000E01D049
:101FB000010E7B6F6351410802E1000E01D0010E5A
:101FC0007B176351420802E1000E01D0010E7B171E
:101FD0006351430802E1000E01D0010E7B176351EB
:101FE000440802E1000E01D0010E7B176351230863
:101FF00002E1000E01D0010E7B1763512A0802E1B5
:10200000000E01D0010E7B1547E0196AF2BE198E51
:10201000F29E0C0E986F010E996FCDEC00F019BE78
:10202000F28E196AF2BE198EF29E63C097F000EC30
:1020300001F019BEF28E6351310802E1010E676FA3
:102040006351320802E1020E676F6351330802E107
:10205000030E676F6351340802E1040E676F63512A
:10206000350802E1050E676F6351360802E1060E7E
:10207000676F6351370802E1070E676F63513808D5
:1020800002E1080E676F6351390802E1090E676FBC
:102090006351300801E1676BF1EC09F001C063F0B6
:1020A0006353D8B485EF15F063512A0802E187EF36
:1020B00015F0635302E1000E01D0010E7B6F6351F6
:1020C0002A0802E1000E01D0010E7B17635141087E
:1020D00002E1000E01D0010E7B176351420802E1BC
:1020E000000E01D0010E7B176351430802E1000E80
:1020F00001D0010E7B176351440802E1000E01D0AC
:10210000010E7B176351230802E1000E01D0010E7E
:102110007B15D8B485EF15F0010E6E6F726B6353AB
:1021200002E1000E01D0010E7B6F6351410802E114
:10213000000E01D0010E7B176351420802E1000E30
:1021400001D0010E7B176351430802E1000E01D05C
:10215000010E7B176351440802E1000E01D0010E0D
:102160007B176351230802E1000E01D0010E7B179B
:1021700063512A0802E1000E01D0010E7B1547E0F1
:10218000196AF2BE198EF29E0D0E986F010E996FAC
:10219000CDEC00F019BEF28E196AF2BE198EF29ED5
:1021A00063C097F000EC01F019BEF28E6351310864
:1021B00002E1010E666F6351320802E1020E666FA2
:1021C0006351330802E1030E666F6351340802E184
:1021D000040E666F6351350802E1050E666F6351A8
:1021E000360802E1060E666F6351370802E1070EFA
:1021F000666F6351380802E1080E666F6351390853
:1022000002E1090E666F6351300801E1666BF1EC83
:1022100009F001C063F063512A0803E16E6B85EF9A
:1022200015F063512308D8A483EF15F06C6B020EF0
:102230006E6F226A040E216EB40EF66E120EF76EE9
:10224000196AF2BE198EF29E24EC01F019BEF28ECC
:10225000196AF2BE198EF29E010E986F030E996FE5
:10226000CDEC00F019BEF28EB60EF66E120EF76EC1
:10227000196AF2BE198EF29E24EC01F019BEF28E9C
:10228000196AF2BE198EF29E010E986F040E996FB4
:10229000CDEC00F019BEF28EC80EF66E120EF76E7F
:1022A000196AF2BE198EF29E24EC01F019BEF28E6C
:1022B000196AF2BE198EF29E110E986F020E996F76
:1022C000CDEC00F019BEF28E196AF2BE198EF29EA4
:1022D00079C08AF0180E8B6F7AEC08F019BEF28E76
:1022E000010E756F010E6F6F746FF1EC09F001C094
:1022F00063F06351410807E17A51310802E3050EAA
:102300007A277AC0BEFF6351420806E17A5302E0A1
:10231000050E7A5F7AC0BEFF6A2DC6D063514308AE
:1023200052E16651040822E36751050803E3050EF4
:1023300066271BD06851080809E3010E6827040EC0
:102340006725F60F676F050E66270FD069510808DD
:102350000AE3010E6927686B040E6725F60F676FA5
:10236000050E662702D0050E66272DD0675104089A
:1023700007E3010E6727050E6625F60F666F23D06B
:10238000685108080BE3010E6827050E6725F60F54
:10239000676F050E6625F60F666F15D06951080840
:1023A0000CE3010E6927686B050E6725F60F676F52
:1023B000050E6625F60F666F06D0010E6727050E1F
:1023C0006625F60F666F63514408D8A46DD0665138
:1023D000040822E26751050803E3050E665F1BD07F
:1023E0006851080809E3010E6827040E6725F60FF7
:1023F000676F050E665F0FD0695108080AE3010E8A
:102400006927686B040E6725F60F676F050E665F18
:1024100002D0050E665F48D0675100082EE2675172
:10242000050807E3010E675F050E665D0A0F666F1C
:1024300023D0685108080BE3010E6827030E6725B7
:10244000F60F676F050E665D0A0F666F15D069514E
:1024500008080CE3010E6927686B030E6725F60F69
:10246000676F050E665D0A0F666F06D0010E675F27
:10247000050E665D0A0F666F17D06851000808E206
:10248000010E685F050E676F665D0A0F666F0CD000
:102490006951000809E2010E695F090E686F050EB7
:1024A000676F665D0A0F666F6A51020810E163513B
:1024B000430805E17951620802E3010E792763516F
:1024C000440805E179516B5D02E2010E795F6351C9
:1024D000310818E1010E6A6F196AF2BE198EF29E78
:1024E000120E986F030E996FCDEC00F019BEF28EAC
:1024F000196AF2BE198EF29E050E8A6F80EC01F009
:1025000019BEF28E6351320818E1020E6A6F196A21
:10251000F2BE198EF29E120E986F030E996FCDECDB
:1025200000F019BEF28E196AF2BE198EF29E060EE6
:102530008A6F80EC01F019BEF28E6351300819E108
:102540006A6B196AF2BE198EF29E120E986F030E14
:10255000996FCDEC00F019BEF28EDA0EF66E120E07
:10256000F76E196AF2BE198EF29E24EC01F019BEC4
:10257000F28E63512A0803E195908C90FF00196A4E
:10258000F2BE198EF29E8B6B79C08AF086EC01F058
:1025900019BEF28E196AF2BE198EF29E03C08DF03A
:1025A00002C08CF001C08BF000C08AF02AC091F00C
:1025B00029C090F028C08FF027C08EF0ECEC03F01B
:1025C00019BEF28ED8A09DD2010E766F196AF2BEA6
:1025D000198EF29E130E986F030E996FCDEC00F0DA
:1025E00019BEF28E196AF2BE198EF29E020E8A6F21
:1025F00080EC01F019BEF28EF1EC09F001C063F03D
:102600006351410807E17A51310802E3050E7A2748
:102610007AC0BEFF6351420806E17A5302E0050E1C
:102620007A5F7AC0BEFF6A2DC6D06351430852E17B
:102630006651040822E36751050803E3050E662787
:102640001BD06851080809E3010E6827040E6725AE
:10265000F60F676F050E66270FD0695108080AE369
:10266000010E6927686B040E6725F60F676F050E6C
:10267000662702D0050E66272DD06751040807E3B0
:10268000010E6727050E6625F60F666F23D0685189
:1026900008080BE3010E6827050E6725F60F676F24
:1026A000050E6625F60F666F15D0695108080CE314
:1026B000010E6927686B050E6725F60F676F050E1B
:1026C0006625F60F666F06D0010E6727050E662594
:1026D000F60F666F63514408D8A46DD066510408A4
:1026E00022E26751050803E3050E665F1BD06851BF
:1026F000080809E3010E6827040E6725F60F676FC7
:10270000050E665F0FD0695108080AE3010E6927BC
:10271000686B040E6725F60F676F050E665F02D0C3
:10272000050E665F48D0675100082EE26751050824
:1027300007E3010E675F050E665D0A0F666F23D023
:10274000685108080BE3010E6827030E6725F60F92
:10275000676F050E665D0A0F666F15D06951080830
:102760000CE3010E6927686B030E6725F60F676F90
:10277000050E665D0A0F666F06D0010E675F050ED7
:10278000665D0A0F666F17D06851000808E2010EF7
:10279000685F050E676F665D0A0F666F0CD0695142
:1027A000000809E2010E695F090E686F050E676F88
:1027B000665D0A0F666F6A5102080FE163514308B4
:1027C00005E17951620802E3010E7927635144085B
:1027D00004E1795302E0010E795F6351310818E199
:1027E000010E6A6F196AF2BE198EF29E120E986F70
:1027F000030E996FCDEC00F019BEF28E196AF2BE8D
:10280000198EF29E050E8A6F80EC01F019BEF28ED1
:102810006351320818E1020E6A6F196AF2BE198E0E
:10282000F29E120E986F030E996FCDEC00F019BE58
:10283000F28E196AF2BE198EF29E060E8A6F80EC35
:1028400001F019BEF28E6351300819E16A6B196A02
:10285000F2BE198EF29E120E986F030E996FCDEC98
:1028600000F019BEF28EDC0EF66E120EF76E196ACB
:10287000F2BE198EF29E24EC01F019BEF28E635165
:10288000230834E1766B756B010E732795908C905D
:10289000196AF2BE198EF29E130E986F030E996F8D
:1028A000CDEC00F019BEF28E196AF2BE198EF29EBE
:1028B000030E8A6F80EC01F019BEF28E196AF2BE27
:1028C000198EF29E140E986F030E996FCDEC00F0E6
:1028D00019BEF28EDE0EF66E120EF76E196AF2BE99
:1028E000198EF29E24EC01F019BEF28E735102088B
:1028F0001AE1736B010E756F196AF2BE198EF29EA2
:10290000130E986F030E996FCDEC00F019BEF28E86
:10291000196AF2BE198EF29E020E8A6F80EC01F0E7
:1029200019BEF28EEED063512A0803E195908C9087
:10293000FF006451FF0802E0000E01D0010E7B6F22
:10294000655302E1000E01D0010E7B1504E0010E7B
:10295000655F090E646F6451FF0802E0000E01D04C
:10296000010E7B6F655302E0000E01D0010E7B1754
:10297000665302E1000E01D0010E7B1506E0010E48
:10298000665F050E656F090E646F6451FF0802E013
:10299000000E01D0010E7B6F655302E0000E01D0E6
:1029A000010E7B17665302E0000E01D0010E7B176B
:1029B000675302E1000E01D0010E7B1508E0010E05
:1029C000675F090E666F050E656F090E646F6451CF
:1029D000FF0802E0000E01D0010E7B6F655302E09C
:1029E000000E01D0010E7B17665302E0000E01D0ED
:1029F000010E7B17675302E0000E01D0010E7B171A
:102A0000685302E1000E01D0010E7B150AE0010EB1
:102A1000685F050E676F090E666F050E656F090E1C
:102A2000646F6451FF0802E0000E01D0010E7B6F5D
:102A3000655302E0000E01D0010E7B17665302E0E1
:102A4000000E01D0010E7B17675302E0000E01D08B
:102A5000010E7B17685302E0000E01D0010E7B17B8
:102A6000695302E1000E01D0010E7B150CE0010E4E
:102A7000695F090E686F050E676F090E666F050EB8
:102A8000656F090E646F6451FF0802E0000E01D00B
:102A9000010E7B6F655302E0000E01D0010E7B1723
:102AA000665302E0000E01D0010E7B17675302E06F
:102AB000000E01D0010E7B17685302E0000E01D01A
:102AC000010E7B17695302E0000E01D0010E7B1549
:102AD00017E0756B766B95908C9095928C82020EB8
:102AE0007B6F196AF2BE198EF29EFA0E986FEDECAA
:102AF00000F019BEF28E7B2FF4D795928C92FF00D6
:102B00007BD572EF11F08CEF10F0D2EF0FF018EFD1
:102B10000FF05EEF0EF037EF0DF07BEF0CF0AFEF44
:0C2B20000BF070EF0BF029EF0BF003003E
:020000040030CA
:0E0000003FCC3E1E0087A1000FC00FE00F4056
:00000001FF
;PIC18F4550
;CRC=FB68  CREATED="04-oct.-23 11:58"
